:020000040800F2
:10000000A08D0420610200085D3B0108ADE00008FE
:100010000909010839130008C9A601087902000876
:10002000000000000000000000000000414F010837
:10003000A927000800000000613B010811630108C6
:10004000830200088302000883020008830200087C
:10005000830200088302000883020008830200086C
:10006000830200088302000883020008AD2700080D
:1000700083020008BD270008C52700088302000886
:10008000830200088302000883020008830200083C
:10009000830200088302000883020008830200082C
:1000A0008302000883020008B5270008392C0008E5
:1000B000452C000883020008830200088302000820
:1000C00083020008830200088302000883020008FC
:1000D000000000008302000883020008ED270008EA
:1000E00083020008830200088302000883020008DC
:1000F00083020008E58601088302000883020008E5
:10010000F1860108FD8601080987010883020008BD
:1001100083020008830200088302000883020008AB
:100120008302000883020008BDA6010883020008BC
:10013000830200088302000883020008830200088B
:10014000830200088302000883020008830200087B
:10015000830200088302000883020008830200086B
:10016000830200088302000883020008830200085B
:100170008302000883020008830200086946010820
:10018000830200088302000883020008830200083B
:10019000830200088302000883020008830200082B
:1001A0008302000883020008512C00088302000823
:1001B000830200088302000883020008830200080B
:1001C00083020008830200088302000883020008FB
:1001D00083020008830200088302000883020008EB
:1001E00083020008830200088302000883020008DB
:1001F00083020008F9270008830200088302000830
:100200008302000883020008830200080000000047
:1002100000000000830200080000000083020008C4
:10022000830200088302000883020008830200089A
:10023000830200088302000883020008830200088A
:10024000830200088302000883020008DFF80CD054
:1002500000F0EEF80048004701F20108A08D0420EC
:10026000084880F30A880848804708480047FEE7A6
:10027000FEE7FEE7FEE7FEE7FEE7FEE7FEE7FEE756
:10028000FEE7FEE7A0890420C96E01084D020008C0
:100290002DE9F05F0546002092469B4688460646BB
:1002A000814640241BE0284641464746224600F04E
:1002B000AEF853465A46C01A914110D3114618461B
:1002C000224600F095F82D1A67EB01084F462246AA
:1002D0000120002100F08CF817EB00094E41201E90
:1002E000A4F10104DFDC484631462A464346BDE816
:1002F000F09F2DE9F0410024061B254671F1000610
:1003000005DA01240027D0EB070067EB0101161E78
:1003100073F1000605DA0027D2EB0702012567EB2F
:100320000303FFF7B5FF86460E4617469C46AC42D0
:1003300004D00025D0EB050E65EB010624B10020AA
:10034000D2EB000760EB030C704631463A46634639
:10035000BDE8F08140EA01039B0703D009E008C92A
:10036000121F08C0042AFAD203E011F8013B00F87A
:10037000013B521EF9D27047D2B201E000F8012BC6
:10038000491EFBD270470022F6E710B513460A4615
:1003900004461946FFF7F0FF204610BD10B504468D
:1003A00004E00B7800F8013B03B1491C521EF8D25F
:1003B000204610BD421C10F8011B0029FBD1801AF9
:1003C0007047CBB203E00178994203D0401C521E23
:1003D000F9D20020704730B504460020034600E003
:1003E0005B1C934203D2E05CCD5C401BF8D030BD77
:1003F000202A04DB203A00FA02F1002070479140E5
:10040000C2F1200320FA03F3194390407047202AD9
:1004100004DB203A21FA02F00021704721FA02F3AE
:10042000D040C2F1200291400843194670470000B5
:10043000064C074D06E0E06840F0010394E8070031
:1004400098471034AC42F6D3FFF704FF8C5B0208E8
:10045000AC5B020870B58C1810F8015B15F007034F
:1004600001D110F8013B2A1106D110F8012B03E04D
:1004700010F8016B01F8016B5B1EF9D12B0705D455
:100480000023521E0DD401F8013BFAE710F8013B9E
:10049000CB1A921C03E013F8015B01F8015B521EBA
:1004A000F9D5A142D8D3002070BD000070B5044634
:1004B000006882688368DB0843EA9202D20704BFBF
:1004C000002070BDC268920120D5627E012A1DD134
:1004D000227E012A1AD10168490612D40421CAF2E7
:1004E000403100BF043953D0026852065FBF026832
:1004F0005FEA426202685FEA426202D40268520620
:10050000F0D540210160012106E000BF022903D19E
:100510000221082612E000BF826852070AD58268CD
:10052000920707D482684FF6C073C7F6FF731A406C
:100530001032826001294FF0040610D08268120741
:100540000AD58268920707D482684FF6C073C7F64F
:10055000FF731A4020328260032908BF0C2604F082
:10056000E7FD21688968314204BF002070BD05465F
:1005700005E000BF8068304204BF002070BD04F079
:10058000D7FD411B20680629F4D381683142F1D0A0
:10059000A06D40F01000A065E06D40F00100E06546
:1005A000012070BD0146C06D836D826D13F0500F48
:1005B00008D0D20648BF02F085BD006D826E0846A5
:1005C000104700BF42F40071816501680B68CA687A
:1005D0001B0711D491070CD4816D21F480718165C2
:1005E000816DC90448BF02F059BD816D41F0010120
:1005F000816502F053BD00BF12F4406FF9D1C968A4
:100600008904F6D4816D21F480718165816DC904FE
:10061000EFD4816D41F00101816502F03FBD000022
:10062000C06D816D41F040018165C16D41F00401F3
:10063000C16502F047BD0000C06D02F041BD000081
:10064000B0B50168044688688A6880074FF00000EA
:1006500033D412F0010208BFB0BD886800F00D006D
:1006600001281FD188684FF6C072C7F6FF7210408C
:10067000023088600320086004F05AFD2168896810
:10068000C90704BF0020B0BD054602E08068C0076E
:1006900012D004F04DFD411B20680329F6D3816878
:1006A000C907F3D0A06D40F01000A065E06D40F0E8
:1006B0000100E0650120B0BD0020B0BD70B582B082
:1006C00004460020019021688A68D20743D14FF682
:1006D000C076C7F6FF76886806F17F0210420BD01D
:1006E000A06D40F01000A065E06D40F00100E065F5
:1006F000012002B070BD00BF8868304040F00100AA
:10070000886048F20830C4F202200068000225D454
:1007100004F00EFD21680A68D2071EBF002002B057
:1007200070BD054603E000BF0868C00712D18868A5
:10073000C00704D18868304040F00100886004F0B0
:10074000F7FC401B21680328EED30868C007EBD1F3
:10075000C6E700BF002002B070BD00BF40F220001D
:10076000C2F20000006842F663518009C0F23E51B7
:10077000A0FB01018809022101EB400001900198D2
:100780000028C5D001980138019001980028BFD0F9
:1007900001980138019001980028B9D001980138DA
:1007A000019001980028B3D0019801380190019878
:1007B0000028E7D1ACE70000002804BF0020704704
:1007C00010B540F2B04172B6C2F20001D1F808C0D3
:1007D000D1F80CE00A694B698C69C969416104610F
:1007E000C3608260C0F804E0C0F800C062B6007C5C
:1007F000002818BF012010BDB0B540F2B044C2F2CD
:100800000004A068451C10F0EBF8C4E904010120C5
:10081000A56020762068002808BFB0BD4FF4807125
:10082000BDE8B04020F06ABA40F2B04172B6C2F200
:100830000001086062B6704740F2B04072B6C2F282
:1008400000000021C0E90211C0E90411C0E906114D
:10085000016062B670470000F0B587B0002867D02D
:100860000446007C40F2B046002814BF27680027E9
:1008700072B6C2F20006B0680D460690F1683269A1
:100880007369059304920391317E8DF80810F27F0D
:100890008DF80620B6F81D20ADF80420D6F81920F2
:1008A000009262B621B1227C002A45D0B84243D1E1
:1008B0004FF4807020F0D2F972B6B0680690F168FB
:1008C00032697369059304920391317E8DF80810A3
:1008D000F27F8DF80620B6F81D20ADF80420D6F87A
:1008E0001920009262B619B1227C2AB3B84223D1F2
:1008F0004FF4807000212A46002520F057FAB0F10D
:10090000FF3F27DD72B6B068F16832697369B76975
:10091000F66966612761E360A2606160206062B68B
:10092000207C002808BF4FF0FF35284607B0F0BDF7
:100930006FF0030007B0F0BD03AF8CCF84E88D00EB
:1009400021740098DDF80310C4F8110061610020E3
:1009500007B0F0BD811C18BF4FF0FF3007B0F0BDED
:10096000B0B5002818BF002900D1B0BD1446002A38
:1009700008BFB0BD05460868D1E902C30A6928600E
:100980002069EB601043286105F118004FF4707284
:10099000C5F808C0FFF7DEFC05F5767021464FF478
:1009A000C472FFF7D7FCB0BD2DE9F04198B3069EA5
:1009B0008EB3079D002D08BFBDE8F081044601609D
:1009C000C0E90223D5E90220D6E902CE33692968BD
:1009D0002F69D6F800803B43A161C4E90A2004F1E5
:1009E000300006F114014FF4C072C4E90438C4E9C0
:1009F00008CEFFF7AFFC04F5D87006F5CA714FF4C6
:100A00008072FFF7A7FC04F52C7005F114014FF478
:100A10008872FFF79FFCBDE8F0810000002808BF46
:100A2000704780B54FF4AC61FFF7ADFC80BD0000AE
:100A3000002808BF704780B54FF42671FFF7A3FC6C
:100A400080BD0000002808BF704780B54FF4C47116
:100A5000FFF799FC80BD0000002808BF704780B5F3
:100A60004FF47071FFF78FFC80BD0000002808BFB5
:100A7000704780B54FF49471FFF785FC80BD00008E
:100A8000F0B585B0B0B104464C21626800788DF8AD
:100A900011100DF111010126009102926B21232208
:100AA000012301960DF014FD054638B1284605B026
:100AB000F0BD00BF0425284605B0F0BD207865686C
:100AC0000DF112010027CDE900166B21242201232C
:100AD0008DF8127002950DF0FBFC05460028E5D15B
:100AE000616820780DF113028DF8137001270092D0
:100AF00002916B212522012301970DF0E9FC0546A7
:100B00000028D3D16168207804AECDE901716B2152
:100B10002322012300960DF097FC00284FF00105D9
:100B2000C4D19DF81000012500F07F004C28BDD1F4
:100B3000207867686B2124220123CDE900650297A4
:100B40000DF082FC0028B1D19DF81000012510F0B5
:100B5000090FABD1207867686B2125220123CDE9ED
:100B6000006502970DF070FC00289FD19DF81000E1
:100B700010F0F90518BF0125284605B0F0BD0000AA
:100B800010B584B090B104460078D4F804C00121B7
:100B90000DF10E02CDE900216B2116220123CDF8C3
:100BA00008C00DF051FC28B104B010BD042004B001
:100BB00010BD00BF9DF80E0000F0FC01814212D074
:100BC0002078D4F804C08DF80F1001210DF10F0228
:100BD000CDE900216B2116220123CDF808C00DF0CC
:100BE00077FC0028E0D12078646801210DF10D0226
:100BF000CDE900216B211622012302940DF024FC83
:100C00000028D1D19DF80D10890718BF012004B02C
:100C100010BD0000B0B584B004468C208DF80F00E4
:100C200084B1616820780DF10F02012500920291D4
:100C30006B212622012301950DF04AFC30B104B04E
:100C4000B0BD00BF042004B0B0BD00BF2078646810
:100C50000DF10E01CDE900156B212622012302942E
:100C60000DF0F2FB0028EAD19DF80E1001F0F8011A
:100C7000882918BF012004B0B0BD00002DE9F04361
:100C800085B098B1044661680078012704AE0291EE
:100C90006B2114220123009601970DF0D5FB054628
:100CA00050B1284605B0BDE8F08300BF04252846B2
:100CB00005B0BDE8F08300BF9DF81000656840F006
:100CC000040020F001018DF8101020788DF811102B
:100CD0000DF11101CDE900176B21142201230295BA
:100CE0000DF0F6FB05460028DBD16168207801276E
:100CF0000DF10F0902916B2115220123CDF800900F
:100D000001970DF0A1FB05460028CAD19DF80F0000
:100D1000656840F0040020F001018DF80F10207884
:100D20008DF812100DF11201CDE900176B2115227B
:100D3000012302950DF0CCFB05460028B1D1616876
:100D4000207801270DF10E0802916B211622012354
:100D5000CDF8008001970DF077FB05460028A0D163
:100D60009DF80E00656840F0200020F003018DF82A
:100D70000E1020788DF813100DF11301CDE9001736
:100D80006B211622012302950DF0A2FB05460028D7
:100D900087D161682078012502916B2114220123FB
:100DA000009601950DF050FB00287FF47AAF9DF876
:100DB0001000012500F0050004287FF472AF2078B0
:100DC00067686B2115220123CDE9009502970DF08C
:100DD0003BFB00287FF465AF9DF80F00012500F074
:100DE000050004287FF45DAF207867686B21162228
:100DF0000123CDE9008502970DF026FB00287FF442
:100E000050AF9DF80E0000F02300B0F1200518BF90
:100E10000125284605B0BDE8F083000010B584B078
:100E200090B104460078D4F804C001210DF10E02FF
:100E3000CDE900216B2119220123CDF808C00DF066
:100E400003FB28B104B010BD042004B010BD00BFE6
:100E50009DF80E0040F00401814212D02078D4F8B1
:100E600004C08DF80F1001210DF10F02CDE9002112
:100E70006B2119220123CDF808C00DF029FB0028B1
:100E8000E0D12078646801210DF10D02CDE9002147
:100E90006B211922012302940DF0D6FA0028D1D13A
:100EA0009DF80D10490758BF012004B010BD000087
:100EB000002804BF042070470170002A08BF1422D4
:100EC000426000207047000070B584B005460028DD
:100ED0004FF004001CBF0C46002901D104B070BDC6
:100EE0000020206069682878012602916B21202269
:100EF0000123009401960DF0A7FA0028EED128787E
:100F0000D5F804C0611CCDE900166B212122012314
:100F1000CDF808C00DF098FA0028DFD128786E6867
:100F2000A11C0122CDE900126B212222012302968D
:100F30000DF08AFA04B070BD2DE9F04F87B0054678
:100F400000284FF004001CBF0C46002902D107B056
:100F5000BDE8F08F0020E060A060606020606968FC
:100F60002878E21C0126009202916B211D220123A8
:100F700001960DF069FA0028E9D128786F686B2195
:100F80001E220123CDE9004602970DF05DFA0028EC
:100F9000DDD12078012210F00701C0F3C10061709B
:100FA0002070084618BF0120073918BF01210840EA
:100FB000607128786F68211DCDE900126B211F2216
:100FC000012302970DF040FA0028C0D120796A6809
:100FD00000F007012878A17002260DF11A0902928B
:100FE0006B2128220123CDF8009001960DF02CFAF8
:100FF0000028ACD128786F689DF81A809DF81BB046
:101000006B212A220123CDE9009602970DF01CFAEC
:1010100000289CD1696828789DF81A709DF81BA05B
:10102000022602916B212C220123CDF8009001961B
:101030000DF00AFA00288AD19DF81A006B2105905C
:101040009DF81B003022049028786D680123CDE9BB
:10105000009602950DF0F8F900287FF478AFDDE9ED
:1010600004219DF81B304FEA0B204FEA0A2641EA83
:1010700002219DF81A20890842EA032208F0FE03A3
:101080001843E08107F0FC003043A081B0F5004038
:1010900018BF0120322340F28D1711FB0731A071D8
:1010A00048F21F50C5F2EB10A1FB0017C2F34B0230
:1010B0007909C72712FB07326181A2FB00014809A9
:1010C0002081002007B0BDE8F08F0000F0B585B0AA
:1010D0000C46503989B20546B1F5576F4FF0040000
:1010E00022D8A1B24CF6CD42CCF6CC42A1FB0212E2
:1010F000910901EB8102A4EB0212120414D1ADB1EB
:1011000088016A688DF81200890828788DF8131014
:1011100002260DF1120702926B2102220123009791
:1011200001960DF0D5F928B105B0F0BD042005B049
:10113000F0BD00BF28786D686B2102220123CDE944
:10114000007602950DF080F90028EDD1BDF812105F
:10115000C1F3851101EB8101B4EB011F18BF012020
:1011600005B0F0BDF0B585B00546A1F6AC5080B233
:101170000C4640F2145188424FF0040022D8A1B22C
:101180004CF6CD42CCF6CC42A1FB0212D10801EBC9
:101190008102A4EB4202120414D1ADB1C8006A6806
:1011A0008DF81200490928788DF8131002260DF1E8
:1011B000120702926B2104220123009701960DF081
:1011C00087F928B105B0F0BD042005B0F0BD00BF1F
:1011D00028786D686B2104220123CDE90076029501
:1011E0000DF032F90028EDD1BDF81210C1F3C8019D
:1011F00001EB8101B4EB410F18BF012005B0F0BD38
:10120000F0B585B00546A1F1640080B20C4640F609
:101210001C4188424FF0040022D8A1B24CF6CD42C6
:10122000CCF6CC42A1FB0212110901EB8102A4EB26
:101230008202120414D1ADB108016A688DF812005F
:10124000090928788DF8131002260DF11207029271
:101250006B2106220123009701960DF039F928B180
:1012600005B0F0BD042005B0F0BD00BF28786D6862
:101270006B2106220123CDE9007602950DF0E4F8FA
:101280000028EDD1BDF81210C1F307120909920030
:1012900052FA81F1B4EB810F18BF012005B0F0BD07
:1012A000F0B585B00446A1F10A0080B240F2622296
:1012B00090424FF0040022D88AB24CF6CD43CCF6CF
:1012C000CC43A2FB0323DA0802EB8203A1EB430128
:1012D000090414D1B4B1D5005109626820788DF8A1
:1012E000131002260DF1120702926B211222012324
:1012F0008DF81250009701960DF0EAF830B105B064
:10130000F0BD00BF042005B0F0BD00BF20786468C8
:101310006B2112220123CDE9007602940DF094F89E
:101320000028ECD1BDF81210694011F4FC7F18BF01
:10133000012005B0F0BD0000FEE7000010B540F24E
:101340004040C2F20000017801291CBF002010BDFE
:101350005C3001F097FB38B10446FFF75FFB0120DA
:1013600084F86005204610BD21F052F840F60C00CC
:10137000C2F20000416B0131416321F059F80020B5
:1013800010BD000010B540F24040C2F200000178EC
:1013900001291CBF002010BD1C3001F073FB38B1C7
:1013A0000446FFF745FB012084F89802204610BD53
:1013B00021F02EF840F60C00C2F20000416B013122
:1013C000416321F035F8002010BD000010B540F257
:1013D0004040C2F20000017801291CBF002010BD6E
:1013E0003C3001F04FFB38B10446FFF735FB0120DC
:1013F00084F8C003204610BD21F00AF840F60C0026
:10140000C2F20000416B0131416321F011F800206C
:1014100010BD000010B540F24040C2F2000001785B
:1014200001291CBF002010BD2C3001F02BFB38B16E
:101430000446FFF71BFB012084F82801204610BD5D
:1014400020F0E6FF40F60C00C2F20000416B0131D3
:10145000416320F0EDFF002010BD00002DE9F043B6
:1014600083B040F24048C2F2000898F8000001281A
:101470001AD140F60C07C2F20007386802A9002210
:1014800000231FF041F998B1786801A900220023D8
:101490001FF03AF900283FD0B868694600220023BF
:1014A0001FF032F900286BD003B0BDE8F08300BF15
:1014B00008F11C040DF108090AE000BF20F0B8FF94
:1014C00038684946002200231FF01EF90028DBD1AE
:1014D000029E002EF4D098F800000028F0D020469C
:1014E000314601F08DFB0028EAD020F091FF96F8FC
:1014F00098020028E2D096F89802013886F89802FF
:1015000096F8985220F094FF002DD9D1204631460C
:1015100001F0DCFAD4E700BF08F12C040DF1040956
:101520000AE000BF20F084FF7868494600220023CB
:101530001FF0EAF80028AFD1019E002EF4D098F8F1
:1015400000000028F0D02046314601F059FB002869
:10155000EAD020F05DFF96F828010028E2D096F846
:101560002801013886F8280196F8285120F060FFFC
:10157000002DD9D12046314601F0A8FAD4E700BFAA
:1015800008F13C04E9460AE020F052FFB8684946F9
:10159000002200231FF0B8F800287FF485AF009EDA
:1015A000002EF3D098F800000028EFD020463146F6
:1015B00001F026FB0028E9D020F02AFF96F8C003AE
:1015C0000028E1D096F8C003013886F8C00396F8E9
:1015D000C05320F02DFF002DD8D12046314601F018
:1015E00075FAD3E72DE9F04182B0C9B30C4640F655
:1015F0000C0115460128C2F2000105D002282FD1A6
:1016000001F1100002E000BF01F10C0006680020AB
:1016100001902EB3681C27D01FF020F8002140F263
:10162000E732E0FB0521A0FB057810464FF47A7203
:101630000023FEF72DFE034647EA0800B0FA80F0CB
:10164000002D18BF0125400928401CBF002101239F
:101650006FF001001A1A71F1000128BF034605E07E
:10166000042002B0BDE8F0814FF0FF3301A93046FD
:1016700000221FF049F838B102304FF0060008BFD1
:10168000022002B0BDE8F08101982060002002B085
:10169000BDE8F081002804BF042070472DE9F04127
:1016A00082B0044640F60C00C2F20000056800203B
:1016B00001903DB30E46481C28D01EF0CFFF0021FC
:1016C00040F2E732E0FB0621A0FB067810464FF41B
:1016D0007A720023FEF7DCFD034647EA0800B0FA01
:1016E00080F0002E18BF0126400930401CBF0021A9
:1016F00001236FF001001A1A71F1000128BF03469F
:1017000006E000BF042002B0BDE8F0814FF0FF33D7
:1017100001A9284600221EF0F7FF38B102304FF031
:10172000060008BF022002B0BDE8F08101982060E9
:10173000002002B0BDE8F0812DE9F04182B0002820
:101740004FF0040043D10C46002940D040F60C0075
:10175000C2F200008568002001903DB31646501C7F
:1017600028D01EF07BFF002140F2E732E0FB06218B
:10177000A0FB067810464FF47A720023FEF788FD2E
:10178000034647EA0800B0FA80F0002E18BF012691
:10179000400930401CBF002101236FF001001A1ADC
:1017A00071F1000128BF034606E000BF042002B02B
:1017B000BDE8F0814FF0FF3301A9284600221EF05A
:1017C000A3FF38B102304FF0060008BF022002B07C
:1017D000BDE8F08101982060002002B0BDE8F081F2
:1017E000002804BF042070472DE9F04182B0044670
:1017F00040F60C00C2F200004568002001903DB3A5
:101800000E46481C28D01EF029FF002140F2E73286
:10181000E0FB0621A0FB067810464FF47A72002305
:10182000FEF736FD034647EA0800B0FA80F0002EC6
:1018300018BF0126400930401CBF002101236FF072
:1018400001001A1A71F1000128BF034606E000BF2B
:10185000042002B0BDE8F0814FF0FF3301A9284613
:1018600000221EF051FF38B102304FF0060008BFD1
:10187000022002B0BDE8F08101982060002002B093
:10188000BDE8F08170B588B040F60C04C2F20004E7
:101890000020C4E90000C4E90200206104F1140042
:1018A0002821FEF770FD40F24045C2F2000542F2E9
:1018B000B031AE1C05F11C00C2F203014FF42872D6
:1018C0000623009601F036F910B108B070BD00BFD4
:1018D00045F2785105F10E0605F12C00C2F2030124
:1018E0004FF498720623009601F024F90028ECD1F9
:1018F00043F2703105F14C0605F13C00C2F20301E0
:101900004FF472720823009601F014F90028DCD11C
:1019100044F2302142F2701605F15C00C2F200017F
:101920004FF4AD62C2F203068823009601F002F97B
:101930000028CAD12DA00026029002AA042004216A
:101940000796CDE90566CDE903661EF02DFF206000
:1019500029A0029002AA042004210796CDE9056679
:10196000CDE903661EF020FF606027A0029002AA66
:10197000042004210796CDE90566CDE903661EF033
:1019800013FFA06022A0029002AA802004210796E3
:10199000CDE90566CDE903661EF006FFE0601FA0F5
:1019A000029002AA042004210796CDE90566CDE93C
:1019B00003661EF0F9FE206100284FF0030084D07A
:1019C000216800293FF481AF616800293FF47DAFB1
:1019D000A16800293FF479AFE16800291FBF012009
:1019E00028700020687008B070BD00BF73656E730A
:1019F0006F722E696D75000073656E736F722E7451
:101A00006F756368000000007261772E616C67007B
:101A100066756C6C2E73746F7265000066756C6C05
:101A20002E727334383500002DE9F04F83B0002852
:101A30004FF0040500F0398140F24049C2F200093C
:101A4000044699F80000002800F02F8199F8010061
:101A500040F60C080E46C2F2000898B320F0D8FCFD
:101A600094F86005013084F8600520F0E1FCD8F8B6
:101A70000C50019445B3701C2CD01EF0EFFD0021DA
:101A800040F2E732E0FB0621A0FB067A10464FF455
:101A90007A720023FEF7FCFB47EA0A02034630464F
:101AA000B2FA82F2002E18BF0120520910401CBF6A
:101AB000002101236FF001001A1A71F1000128BF03
:101AC000034609E000253FE0042599F800000128BD
:101AD00016D039E04FF0FF3301A9284600221EF04E
:101AE000B5FE58B320F094FCD8F838000130C8F89F
:101AF000380020F09DFC052599F80000012823D12D
:101B000009F15C073846214601F07AF8E0B120F08F
:101B10007FFC94F86005A8B194F86005013884F85A
:101B2000600594F860A520F083FCBAF1000F0BD19A
:101B30003846214600F0CAFF06E000BF4FF0010A18
:101B4000002503E020F074FC4FF0000A20F060FC58
:101B500094F86005013084F8600520F069FCD8F83D
:101B60001070029457B3701C2ED01EF077FD002128
:101B700040F2E732E0FB0621A0FB06B810464FF426
:101B80007A720023FEF784FB03464BEA0800B0FAA2
:101B900080F0002E18BF0126400930401CBF0021F4
:101BA000012340F60C086FF00100C2F200081A1A77
:101BB00071F1000128BF034608E000BF042599F831
:101BC0000000012816D061E04FF0FF3302A938462B
:101BD00000221EF03BFE68B320F01AFCD8F8380053
:101BE0000130C8F8380020F023FC052599F80000E2
:101BF00001284BD109F15C063046214601F000F87E
:101C0000D0B120F005FC94F86005A8B394F8600505
:101C1000013884F8600594F8607520F009FC5FB91C
:101C20003046214600F052FF99F80000012807D005
:101C30002CE000BF4FF0010A99F80000012825D1DF
:101C400009F15C063046214600F0DAFFF0B120F0E1
:101C5000DFFB94F86005B8B194F86005013884F8AA
:101C6000600594F8607520F0E3FB7FB930462146AB
:101C700000F02CFF0AE000BF20F0DAFB99F800002A
:101C80000128DDD002E000BF20F0D2FB20F0C0FB35
:101C90002020BAF1000F04BF0525302058F80010AD
:101CA000013148F8001020F0C3FB284603B0BDE81E
:101CB000F08F00002DE9F04782B0002840D040F2BC
:101CC0004047C2F2000704463878012838D140F670
:101CD0000C08C2F20008D8F800500E4620F098FB1D
:101CE00094F89802013084F8980220F0A1FB019446
:101CF00065B3701C2CD01EF0B1FC002140F2E7321D
:101D0000E0FB0621A0FB069A10464FF47A720023EE
:101D1000FEF7BEFA034649EA0A00B0FA80F0002E48
:101D200018BF0126400930401CBF002101236FF07D
:101D300001001A1A71F1000128BF03460AE000BF32
:101D40000425284602B0BDE8F08700BF042511E055
:101D50004FF0FF3301A9284600221EF077FD28B37B
:101D600020F056FBD8F838000130C8F8380020F0D1
:101D70005FFB052507F11C063046214600F040FFB9
:101D800090B320F045FB94F8980258B394F8980269
:101D9000013884F8980294F8987220F049FB1FBB30
:101DA0003046214600F092FE1EE000BF07F11C0500
:101DB0002846214600F024FF002841D020F028FBCF
:101DC00094F89802D0B394F89802013884F89802F5
:101DD00094F8986220F02CFB96BB2846214600F030
:101DE00075FE2DE020F024FB3046214600F008FF70
:101DF000B0B120F00DFB94F8980278B194F89802F5
:101E0000013884F8980294F8987220F011FB3FB9D9
:101E10003046214600F05AFE02E000BF20F008FBE9
:101E200020F0F6FAD8F824000130C8F8240020F099
:101E3000FFFA284602B0BDE8F08700BF20F0F8FAAC
:101E400020F0E6FAD8F814000130C8F8140020F0A9
:101E5000EFFA0025284602B0BDE8F0872DE9F047EB
:101E600082B0002840D040F24047C2F2000704464A
:101E70003878012838D140F60C08C2F20008D8F8AA
:101E800008500E4620F0C4FA94F8C003013084F8DC
:101E9000C00320F0CDFA019465B3701C2CD01EF065
:101EA000DDFB002140F2E732E0FB0621A0FB069AB1
:101EB00010464FF47A720023FEF7EAF9034649EA26
:101EC0000A00B0FA80F0002E18BF01264009304009
:101ED0001CBF002101236FF001001A1A71F10001EB
:101EE00028BF03460AE000BF0425284602B0BDE82B
:101EF000F08700BF042511E04FF0FF3301A9284609
:101F000000221EF0A3FC28B320F082FAD8F8380093
:101F10000130C8F8380020F08BFA052507F13C069F
:101F20003046214600F06CFE90B320F071FA94F830
:101F3000C00358B394F8C003013884F8C00394F880
:101F4000C07320F075FA1FBB3046214600F0BEFD7D
:101F50001EE000BF07F13C052846214600F050FE78
:101F6000002841D020F054FA94F8C003D0B394F87C
:101F7000C003013884F8C00394F8C06320F058FA15
:101F800096BB2846214600F0A1FD2DE020F050FA36
:101F90003046214600F034FEB0B120F039FA94F812
:101FA000C00378B194F8C003013884F8C00394F8F2
:101FB000C07320F03DFA3FB93046214600F086FD5F
:101FC00002E000BF20F034FA20F022FAD8F82C000A
:101FD0000130C8F82C0020F02BFA284602B0BDE8EA
:101FE000F08700BF20F024FA20F012FAD8F81C0085
:101FF0000130C8F81C0020F01BFA0025284602B06A
:10200000BDE8F0872DE9F04782B0002840D040F2CB
:102010004047C2F2000704463878012838D140F61C
:102020000C08C2F20008D8F804500E4620F0F0F96F
:1020300094F82801013084F8280120F0F9F901947E
:1020400065B3701C2CD01EF009FB002140F2E73272
:10205000E0FB0621A0FB069A10464FF47A7200239B
:10206000FEF716F9034649EA0A00B0FA80F0002E9E
:1020700018BF0126400930401CBF002101236FF02A
:1020800001001A1A71F1000128BF03460AE000BFDF
:102090000425284602B0BDE8F08700BF042511E002
:1020A0004FF0FF3301A9284600221EF0CFFB28B3D2
:1020B00020F0AEF9D8F838000130C8F8380020F028
:1020C000B7F9052507F12C063046214600F098FDAA
:1020D00090B320F09DF994F8280158B394F82801A2
:1020E000013884F8280194F8287120F0A1F91FBB69
:1020F0003046214600F0EAFC1EE000BF07F12C0547
:102100002846214600F07CFD002841D020F080F9CF
:1021100094F82801D0B394F82801013884F82801F4
:1021200094F8286120F084F996BB2846214600F0F7
:10213000CDFC2DE020F07CF93046214600F060FD1A
:10214000B0B120F065F994F8280178B194F828012D
:10215000013884F8280194F8287120F069F93FB912
:102160003046214600F0B2FC02E000BF20F060F9EA
:1021700020F04EF9D8F828000130C8F8280020F0E7
:1021800057F9284602B0BDE8F08700BF20F050F9AB
:1021900020F03EF9D8F818000130C8F8180020F0F7
:1021A00047F90025284602B0BDE8F08770B504461F
:1021B00000284FF0040008BF70BD40F24041C2F259
:1021C00000010A782AB301F15C052846214600F097
:1021D00017FD002804BF042070BD20F019F994F801
:1021E000600598B194F86005013884F8600594F8AA
:1021F000606520F01DF9002E1CBF002070BD284630
:102200002146BDE8704000F061BC00BF20F010F92D
:10221000002070BD70B5044600284FF0040008BFD0
:1022200070BD40F24041C2F200010A782AB301F1C8
:102230001C052846214600F0E3FC002804BF0420CA
:1022400070BD20F0E5F894F8980298B194F89802DF
:10225000013884F8980294F8986220F0E9F8002E8A
:102260001CBF002070BD28462146BDE8704000F02C
:102270002DBC00BF20F0DCF8002070BD70B5044616
:1022800000284FF0040008BF70BD40F24041C2F288
:1022900000010A782AB301F13C052846214600F0E6
:1022A000AFFC002804BF042070BD20F0B1F894F802
:1022B000C00398B194F8C003013884F8C00394F8BF
:1022C000C06320F0B5F8002E1CBF002070BD28466A
:1022D0002146BDE8704000F0F9BB00BF20F0A8F82F
:1022E000002070BD70B5044600284FF0040008BF00
:1022F00070BD40F24041C2F200010A782AB301F1F8
:102300002C052846214600F07BFC002804BF042051
:1023100070BD20F07DF894F8280198B194F8280158
:10232000013884F8280194F8286120F081F8002E03
:102330001CBF002070BD28462146BDE8704000F05B
:10234000C5BB00BF20F074F8002070BD40F24041D2
:10235000C2F20001002818BF012048707047000039
:10236000ADF5747D44F240140020C2F200046D907B
:1023700020463021FEF707F800F070FC05460138D2
:1023800001280CD8284600F083FC40B920F040F822
:1023900040F22800C2F20000057420F049F80AA8B3
:1023A00000F11C0100F58E7004906EA8059100F1FB
:1023B000140100F58A7046F6283802906DAE4FF091
:1023C000000BC4F66E6800200391069005E000BF84
:1023D00084F82C0001201DF0F1FF002031460A2274
:1023E000FFF7AAF9022817D00628F3D00028EFD16A
:1023F0001EF034F9A0B105461EF014F944F2402154
:10240000C0F20F01A0FB01012A460023FDF740FFA7
:102410008146089108E000BFE0680130E060D9E73C
:1024200000204FF00009089020686D9D0130206069
:10243000286860620AA8FEF705FBD5E902012A6850
:102440000C900A920D9107218DF83C10297C890788
:1024500006D5059805F5D8714FF48072FDF77AFF1F
:102460001FF0D6FF40F228016EA8C2F200014FF41F
:102470000672FDF76FFF1FF0DBFF00F0EFFB8DF83A
:10248000C80129699DF8CCA3BDF8CE73B1F5803F92
:10249000CDF8249022D301F0030003281ED105F5C6
:1024A000D870DDE90335029A090C00926EAA0195F5
:1024B00009F028FF8DF83C008DF840A0ADF83E7083
:1024C00078BB1820BAF1000F08BF08200E90201D1D
:1024D00000214FF0010907912BE000BF0720CDE953
:1024E0005188CDE95388CDE95588CDE95788CDE9A4
:1024F0005988CDE95B88CDE95D88CDE95F88CDE974
:102500006188CDE96388CDE96588CDE96788CDE943
:102510006988CDF8AC818DF83C008DF840A0ADF80D
:102520003E70079020694FF000090130206104F1EE
:10253000140001686D9F013101608FB1FEF7FEFE4E
:10254000A0B139460AAA0546FEF70AFA2846002134
:10255000FFF76AFA002867D0824604F11C0009E000
:10256000DDF824904FF0040A09E000BF04F11800E0
:102570004FF0030A0168DDF82490013101605FFA31
:102580008BF0032838BF0BF1010B5FFA8BF00328A7
:1025900014D34FF000700121BAF1030F08BF4FF0C0
:1025A0008060009144F203014FF0050208BF44F23D
:1025B00004010023002514F059F900E00025002053
:1025C00006906D98FFF75AFE4FF000016D91A8B18B
:1025D000216A0131216284F82C001EF03FF8C0B15D
:1025E00007461EF01FF844F24021C0F20F01A0FB85
:1025F00001013A460023FDF74BFE0CE00798002D41
:1026000018BF8246504684F82C001EF027F8002898
:10261000E6D100200021B0EB0902089A914124BFC5
:10262000A0EB0900A062D8E6A06806990130A0607E
:10263000C8B2032838BF013148460691CDB213F025
:1026400051FF032D4FF0000A11D34FF0806000219D
:1026500005220023CDF800A014F008F94FF0007017
:10266000002105220023CDF800A014F0FFF8DDF8CA
:10267000249001254FF0000BA3E70000002808BFBD
:102680007047B0B504461FF0C3FE44F24010C2F2DA
:102690000000D0E900CED0E90231D0E90452C4E90B
:1026A00000CEC4E90231C4E90452D0E906C2D0E93F
:1026B0000835D0E90A10C4E906C2C4E90835C4E9FE
:1026C0000A10BDE8B0401FF0B3BE000010B51FF007
:1026D0009FFE45F22C10C0F60200D0E900E2D0E9DE
:1026E000023140F2280C0020C2F2000C0CEB000476
:1026F0004030B0F5807FC4E905E2C4E90731C4E9A0
:1027000009E2C4E90B31C4E945E2C4E94731C4E94F
:1027100049E2C4E94B31C4E90DE2C4E90F31C4E92F
:1027200011E2C4E91331C4E94DE2C4E94F31C4E90F
:1027300051E2C4F84C31C4F85011D7D100208CF8C4
:102740001402ACF816021FF073FE002010BD00004A
:10275000F0B581B0064600284FF004001CBF0D46BE
:10276000002901D101B0F0BD14461FF051FE40F226
:102770002807C2F2000707F1140031464FF48072B7
:10278000FDF7E8FD07F58A7029464FF48072FDF7E2
:10279000E1FD012087F81402A7F816421FF048FE59
:1027A000002001B0F0BD000070470000012002F0E1
:1027B000C3BB00004FF4004002F0BEBB042002F097
:1027C000BBBB0000082002F0B7BB000002A022F053
:1027D000FFFB72B6FEE700BF5B4572726F725D2051
:1027E00068616E646C65720D0000000040F6A060C8
:1027F000C2F2000001F0C0BF40F60470C2F2000057
:1028000001F0BABF86B040F268380020C2F200087A
:10281000CDE9040008F108003821FDF7B4FD0020DF
:1028200000214FF0000B4FF00009039104E000BFBE
:1028300001201DF0C3FD0598002853D004980028FE
:102840005ED0DDE90445002D18BF002C66D115B31C
:102850001DF0E8FE0399451A1DF000FF044640F202
:10286000E73000216422E4FB02014FF47A72002376
:10287000FDF70EFD002C08BF012085420AD3D8F8D1
:10288000141005980131C8F8141018B1FFF7C2FCF4
:1028900000200590049C002CCAD01DF0C3FEA0EBC4
:1028A0000B051DF0DBFE044640F2E73000216422F8
:1028B000E4FB02014FF47A720023FDF7E9FC002CDF
:1028C00008BF01208542B3D3D8F81810049801310D
:1028D0000028C8F81810ABD0FFF704FD00200490C2
:1028E000A6E700BF05A80A21FEF7D4FE0628A5D05A
:1028F00002285DD0002867D11DF094FE03909DE76B
:1029000004A80A21FEF76CFF06289AD0022855D0A9
:1029100000285DD11DF086FE834692E7D5E90220AE
:10292000D4E902310027B2EB030E70EB010C38BF83
:1029300001279E1A61EB000A002F04BF7646E2468B
:1029400041F28937F71B7AF10007C8E90C6A13D303
:10295000D21AD8F81C20884102F10100C8F81C00E6
:102960003AD2D8F814000130C8F814002846FFF70E
:1029700051FC0020059039E0FEF728FDD0B3D5E9E1
:102980000223D8F800100646CDE90054FEF70CF8F3
:1029900030460021FFF762FA002861D00446D8F8DB
:1029A00024000130C8F82400059858BB2EE000BF71
:1029B000D8F80C000130C8F80C003FE7D8F8100038
:1029C0000130C8F810003CE788F8380036E700BF4F
:1029D00088F8380035E700BFD8F818000130C8F88B
:1029E00018002046FFF77EFC00200490022488F89F
:1029F000384014E0D8F8200003240130C8F8200043
:102A0000059818B1FFF706FC00200590049818B14E
:102A1000FFF768FC0020049088F83840E4B15FFAC2
:102A200089F0032838BF09F101095FFA89F003280A
:102A30007FF401AF44F20300032C08BF44F204000A
:102A400005210022022C08BF44F2020013F0CCFD45
:102A500005984FF00409EFE605984FF00009EBE602
:102A6000D8F80800D8F800100130C8F80800481C51
:102A70000024C8F82810C8F8000005980028C1D123
:102A8000C4E7000010B5002804BF002010BD0446B4
:102A90001FF0BEFCA08998B1616801EB4002411EA5
:102AA0008BB2E08932F8022C8342A18138BFE181E8
:102AB0002068218901FB02041FF0BAFC204610BDEA
:102AC00000241FF0B5FC204610BD0000B0B5044640
:102AD00000284FF0040018BF002901D1B0BD00BF8D
:102AE000226882B18A424FF00400F7D865892389B1
:102AF00003FB05258D4298BFB0BD881AB0FBF3F5E6
:102B000005FB130010B10420B0BD00BF1FF080FC16
:102B1000A0896189884209D2616821F81050A08992
:102B20000130A0811FF084FC0020B0BD1FF080FCAC
:102B30000120B0BDF0B58446002B4FF0040018BF53
:102B4000002A01D1F0BD00BFBCF1000F18BF002961
:102B5000F8D0DDF814E0BEF1000F08BFF0BD880723
:102B60001CBF0420F0BD581ECCE9001EACF80820A4
:102B7000ACF80A30ACF80C30ACF80E30032803F097
:102B8000030C03D20021002218E000BF4FF6FD70B5
:102B900023F00304AEF1080500210022D6431E44B1
:102BA00025F8086F861A1E440431771CAE80013E5A
:102BB0008C4202F104026F80EE80EFD1BCF1000F75
:102BC00013D0D0431844BCF1010F2EF8110001D1ED
:102BD0000020F0BD6FF00200801A1844441C0EEB78
:102BE0004100BCF1020F448002D10020F0BD00BFC3
:102BF0004FF6FD71891A194481800020F0BD000054
:102C0000024600284FF0000018BF002900D170478D
:102C100013680020002B08BF7047B2F80AC0128961
:102C20008B4202FB0C324FF0000398BF01238A4213
:102C300088BF01201840704740F63850C2F20000AB
:102C400000F076BE40F6B050C2F2000000F070BE58
:102C500040F62860C2F2000000F06ABE40F2402058
:102C6000C2F200000078704780B541F20000C4F263
:102C700002204FF4805102F04FFA012840F2402028
:102C80004FF00101C2F2000008BF0221017080BDB7
:102C9000411E01298FBF042040F24021C2F20001F1
:102CA000087098BF00207047F0B581B000220092F4
:102CB00090F85420012A03D10221084601B0F0BD4A
:102CC0000123076880F85430BB685B0746D40B6863
:102CD000012B0AD00225C0F23045AB420BD1CD68A2
:102CE0000024C4F27F04A54205D1D7F8C85045F0AE
:102CF0000105C7F8C8504D681F26C5F3012405F02B
:102D00001F0507EB8404C3F38463226BAE40B24318
:102D1000AB401A432263BA68BB68DB0843EA9202FD
:102D2000D20740F0BC800A6807F11403C2F3406484
:102D3000D1F808E0042653F82450C2F3045406EAFC
:102D4000D25C0722A240BEF1004F25EA02050BD15A
:102D500043F80C501A6842F000430DE0816D41F0D9
:102D600020018165012192E10EFA04F22A4343F821
:102D70000C201A6822F000437B61D1E90434FD681D
:102D8000042B5FD13A6E3A6E0B68C2F3846293FAF9
:102D9000A3F6C3F3846C6FF31F53B6FA86F5002BCA
:102DA0002C464FF6FF7E08BF6446A242C0F20F0ECB
:102DB0000CD13A6E22F000423A660A6802EA0E032B
:102DC000C2F3846C92FAA2F2B2FA82F57A6E7A6E4B
:102DD000002BC2F384622C4608BF6446A2420CD189
:102DE0007A6E22F000427A660A6802EA0E03C2F3A3
:102DF000846C92FAA2F2B2FA82F5BA6EBA6E002B25
:102E0000C2F384622C4608BF6446A2420CD1BA6E5B
:102E100022F00042BA660A6802EA0E03C2F3846C2A
:102E200092FAA2F2B2FA82F5FA6EFA6E002B08BF9D
:102E30006546C2F38462AA4231D1FA6E22F00042A2
:102E4000FA662CE0062202EA950207F16005D1F845
:102E500000C055F8236004FA02F24FF20004C0F2F9
:102E6000FF3426400CF0F8442243324342F0004243
:102E700045F823200A698B6955F8226026F0807690
:102E8000334345F822300A690B7F55F82260012B45
:102E900026F0007608BF06F1007645F82260BA6891
:102EA000D20752D10C68CA68D7F8B06023466FF3D6
:102EB0001F5326EA030C4FF6FF7602F01805C0F206
:102EC0000F06EE4000252640C4F27F0546EA0C06B8
:102ED000AA42C7F8B06038D193B194FAA4F2B2FA1A
:102EE00082F2013202F01E03092B02F01F0310D8F8
:102EF000012203EB43069A4042EA065316E000BF64
:102F0000012202EB946202F01E030A2B02F01F035F
:102F1000EED303EB43020025CFF62065012605EB37
:102F2000025206FA03F31A4342F00073C3F34062FD
:102F3000C3F3045307EB82028E68556907249C4053
:102F4000A54306FA03F32B4353610C680021C8F232
:102F500008010C4230D048F20831C4F202210B685B
:102F60000022CCF22132944203F0E07C08BF13F43B
:102F7000000223D00022C4F22932944208BF13F089
:102F8000807221D00022CCF25272944208BF13F416
:102F900080021FD0012C57D00022C4F25A729442F2
:102FA0005AD14FF6C062CFF6FF728B5843F001033F
:102FB0008B5000216BE000BF002168E0A1F5427258
:102FC00097420DD0002162E0A1F50272974245D0F0
:102FD00000215CE0A1F54272974247D0002156E003
:102FE0000A6822F0E07242EA0C0242F400020A602F
:102FF00040F22001C2F20001096842F663528909D9
:10300000C0F23E52A1FB02129109022202EB4101E1
:1030100000910099A1B3009901390091009989B3F9
:10302000009901390091009971B30099013900911B
:10303000009959B3009901390091009900294FF086
:103040000001E8D123E000BFD7F8C81041F001012A
:10305000C7F8C81000211AE0002118E00A6822F021
:10306000E07242EA0C0242F0807206E00A6822F046
:10307000E07242EA0C0242F480020A60002106E09B
:10308000002104E0002102E0002100E000210022F4
:1030900080F85420084601B0F0BD000040F6D04151
:1030A000C2F20001884218BF704740F2C430C2F239
:1030B0000000406810B101211DF020BE70470000E3
:1030C0007047000040F6D041C2F20001884218BFAC
:1030D000704740F2C430C2F20000406810B10221D3
:1030E0001DF00CBE70470000B0B582B00446002051
:1030F00001904CB1A06D58B121688868800012D44D
:103100008868C00019D54CE0012002B0B0BD00BFF6
:10311000204600F0F3F80020E06584F854002168B0
:1031200088688000ECD588684FF6C072C5F6FF72DB
:10313000104088608868C00033D44FF6C072886839
:10314000C5F6FF7202F18052104000F18050886095
:1031500040F22000C2F20000006842F6635280098B
:10316000C0F23E52A0FB02029009022202EB400094
:1031700001900198A8B100BF019801380190019811
:1031800078B1019801380190019850B10198013847
:103190000190019828B10198013801900198002808
:1031A000EAD18868C00009D4A06D40F01000A06585
:1031B000E06D40F00100E065012000E000208A6839
:1031C000A36DC2F3800203F01003D218A26D05D0E4
:1031D00042F010010120A16502B0B0BD22F481725D
:1031E0000232A2658A68D2071AD148F2083C4FF62B
:1031F00000534FF60062C4F2022CCFF6FF73CFF6F5
:10320000FF725CF803305CF802201A43D20707D142
:103210006268DCF8003023F47C131A43CCF80020F9
:10322000627EA36B43EA4232D4E902C31A4394F8A4
:10323000203042EA0C0242EA034E012B08D1D4F8B6
:1032400024C00023CFF6FE7303EB4C434EEA030E7B
:10325000A36A3BB103F47873D4F82CC043EA0E029E
:1032600042EA0C0ECB6844F20702CFF6F0721A4025
:1032700042EA0E02CA600A69236B22F040621A43D6
:103280000A618A68120728D494F83430227E5B00E1
:1032900094F83CC043EA823ECB6844F2020223EA3F
:1032A000020242EA0E02CA600A69BCF1010F11D1A2
:1032B00040F2FD7322EA030CD4E91032D4E912E59E
:1032C00043EA0C031A4342EA0E022A4342F0010287
:1032D00002E000BF22F001020A6122690B6B012AA1
:1032E00023F00F0202BFE369013B1A430A63A16D99
:1032F000012262F30101A16502B0B0BD2DE9F041E8
:10330000CAB0044602A8002640F2000808304FF474
:1033100080714996CDE94766CDE94566C4F2022839
:10332000FDF731F8206808F50041884202D04AB024
:10333000BDE8F0814FF40010029002A80396379682
:1033400003F092FE002818BFFFF740FA40F68C40C9
:10335000C4F20240016845AE41F480610160016839
:10336000032701F48061019101990168002541F072
:1033700004010160016801F00401019101990168F3
:1033800041F001010160016801F001010191019921
:10339000016841F0020101600068314600F002005E
:1033A000019001981D20459008F5006046974795CB
:1033B00001F0EAFD8820CDE94507404631464795B2
:1033C00001F0E2FD08F580603146CDE9457747958B
:1033D00001F0DAFD40F62860C2F200002065C46505
:1033E0004AB0BDE8F08100002DE9F0419CB048F200
:1033F00000070446C4F20227D7F8080323681646DC
:103400009B685A0704D4884694F85410012903D1C4
:1034100002201CB0BDE8F08100F01F050120092D3D
:1034200084F8540054D8A84040F2212108424FD0DB
:103430002046FDF743F928B1002184F854101CB050
:10344000BDE8F0812168A06D40F60172904307F558
:103450008072914218BF0F4600F58070002DA06564
:1034600018BF8F4203D1A06D20F48010A065A06D1D
:1034700040F2A553C0044FF0000044BFE06D20F0BF
:103480000600E065206DC0F6000340F23967036670
:1034900040F22163C0F60007C0F600030022C0E935
:1034A00019731C230B6084F854204A6842F0100200
:1034B0004A60CA6842F00102CA6090F850201206C1
:1034C0000ED48269012A1DD0022A08BFB6001AE074
:1034D000002084F8540001201CB0BDE8F08100BF3A
:1034E000406F0028F7D001680029F4D001A800F04F
:1034F00077F80028EFD10798012815D0022808BFD7
:10350000B60012E0760040314246334600F0C0FD7E
:1035100021684FF6C0738A68C7F6FF731A400432F9
:103520008A601CB0BDE8F0817600206D2268416F92
:1035300040320968C1E90262C1F8108000F0FAF86F
:10354000E6E70000B0B5044690F85400012804BF37
:103550000220B0BD012084F8540020460321FCF76E
:10356000A5FF054620B1002084F854002846B0BDD0
:103570002168206DCA6822F00102CA6090F85420C8
:10358000022A16D100F03EF990B105462068A16DDF
:1035900041F04001A165416821F0100141602046E1
:1035A000FDF74EF8002084F854002846B0BD00BF57
:1035B0002168486820F0100048602046FDF740F878
:1035C00005460028CFD1A06D41F20111884301309A
:1035D0000025A065002084F854002846B0BD0000F6
:1035E00080B500284FF0010218BF002902D1104613
:1035F00080BD00BF91F820C042F20002C0F800C0B8
:103600000B68C0F6004203F0080303610B6803F483
:10361000002343610B6803F0030383610B6803F429
:103620004033C3610B68C3F30513013343620B6876
:10363000C3F30553013383620B6803F04023C36275
:103640000B681A4082630A6802F4C052C2634B6876
:103650009A0509D4DAB242604A79520754BF00226F
:103660004FF4806203E000BF4FF400724260C2601A
:103670004A685FEA8C7302F4006282604A6802F46E
:10368000404202644A6802F040724264CA8802F012
:103690003F0282644A6802F0404202630A898266FD
:1036A0000CD40122C264CA6802660969002241661C
:1036B000C0E91422C0E91622104680BD4A896FF382
:1036C000DF220132C264CA6802660A6942664B6937
:1036D0006FF35F330365B1F816C06FF35F3CC0F85A
:1036E00054C0D1F808E05FEACE0203D55A42026521
:1036F000D1F808E05FEA8E0244BFCCF100024265D7
:10370000B1F818E0C0F858E08A694FEA124CC0F8E6
:103710005CC08A68530003D5CEF1000282658A68D6
:10372000B2F1FF3FC4BF002080BDCCF10001C165F4
:10373000002080BD80B500285AD0436F002B57D0A1
:10374000016D002954D090F85410D0F800E0012900
:10375000DEF814C004D002294CD11CF4803149D0C9
:1037600090F8541001293AD190F84C1001294FF0EB
:10377000020145D0012280F84C2080F854101973C2
:10378000002181651961DEF8141041F4BA41CEF8C8
:103790001410416E29B1DEF8141041F40071CEF816
:1037A0001410006F28B1DEF8140040F40050CEF879
:1037B000140018680022016ACFF60102490861F37B
:1037C000596261F39A624FF6FF7120EA0101CEF867
:1037D00000104FF6FC7108401044CEF87C00DEF873
:1037E000140040F00100CEF81400002080BD00BF9E
:1037F000012080BD40218165002180F84C1001210D
:10380000084680BDB0B5044601F092FC002C04BF10
:103810000120B0BD054694F8540002282ED121683D
:10382000486940F004004861052084F854000869A4
:10383000800408D401F07CFC401B052826D82168B0
:1038400008698004F6D54869012240F00200486109
:10385000042084F854004FF4FE40C86084F85420DB
:1038600094F8500000064FF0000002D5636F1A7301
:103870008864002184F84C10B0BD00BF2020A065F2
:103880000120002184F84C10B0BD00BFA06D40F0B5
:103890001000A065032084F8540094F8500000063E
:1038A0004FF0010044BF616F0873002184F84C1091
:1038B000B0BD0000002804BF0120704790F85410EC
:1038C00002290BD1042180F85410006842F204024E
:1038D0004169114341610020704700BF202181658B
:1038E00001207047024600284FF0010008BF7047D2
:1038F000CB065CBF00207047136840F6FF7223EAD6
:10390000020203F57B63C3F3C41301F01101112913
:1039100000FA03F004D1516808435060002070475A
:10392000516821EA0000506000207047806D7047A8
:1039300010B5044600680C22034600F57B6162F373
:103940000B03C1F3C4111A6822FA01F1C90700F090
:10395000CB800169490544BF41695FEA415143D4C5
:103960000169090544BF41695FEA015144D4016915
:10397000C90444BF41695FEAC14145D401694904B2
:1039800044BF41695FEA414146D40169890544BFAA
:1039900041695FEA815147D40169890444BF4169A3
:1039A0005FEA81414AD40169C90544BF41695FEAC0
:1039B000C15169D4A06D002800F09680206841694B
:1039C00041F002014161012084F8540094F8501044
:1039D000090644BF616F0873A16E0020002984F8B6
:1039E0004C004CD180E000BF4FF48061C160A16DFC
:1039F00041F00101A165B3E74FF40061C160A16D21
:103A000041F00201A165B2E74FF48051C160A16DA0
:103A100041F00401A165B1E74FF48041C160A16D9F
:103A200041F00801A165B0E74FF40071C160616E1B
:103A30000029B1D0204688472068ADE74FF40051F7
:103A4000C16094F8541004292AD1416921F400512D
:103A50004161416941F002014161012184F8541042
:103A600094F85020120603D5626F1173002181640F
:103A7000E16E0020002984F84C0008BF10BD2046EC
:103A8000BDE81040084700BF94F85010090613D451
:103A9000816C002904BF012184F8541015E000BF97
:103AA000052184F85410216F00293FF47CAF204693
:103AB0008847206877E700BFC16F31B9816C21B9B1
:103AC000012184F85410626F11734FF44071C1608A
:103AD000216E0020002984F84C001CBF2046884736
:103AE000A06D00287FF46AAF10BD000070B50446D9
:103AF00001F01EFB002C04BF012070BD002184F8E2
:103B00004C100546206894F8542022B9C4E91811D5
:103B1000C4E91A112167022184F85410416941F067
:103B2000060141614169C90709D000BF01F000FBEE
:103B3000401B052854D820684169C907F6D1216A7D
:103B4000426904F1100522F4430211434161E36923
:103B500026CD1A4340F24F0E1143C5F2020E40F239
:103B60004F3C704541EA0503C5F2020C1CDC41F2F2
:103B70004F05C4F20205A8423ADC40F24F25C4F2D8
:103B80000205A84262DC40F24F15C4F20205A842C9
:103B900000F39C805025C4F20205A84200F0F0809A
:103BA000D025C4F20205E9E041F24F05C5F2020555
:103BB000A84235DC40F24F25C5F20205A84257DC89
:103BC00040F24F15C5F20205A84200F38B80502544
:103BD000C5F20205A84200F0D380D025CCE000BF9A
:103BE000012003221021A16584F8542070BD00BF7C
:103BF00041F24F25C4F20205A84245DC41F24F15BF
:103C0000C4F20205A84277DC41F25005C4F2020575
:103C1000A84200F0B58041F2D005C4F20205ADE043
:103C200041F24F25C5F20205A8423FDC41F24F1593
:103C3000C5F20205A8426BDC41F25005C5F202054F
:103C4000A84200F09D8041F2D00595E040F24F354A
:103C5000C4F20205A84265DC40F25025C4F2020518
:103C6000A84200F08D8040F2D025C4F2020585E024
:103C7000604563DC40F25025C5F20205A84200F021
:103C80007F8040F2D02577E041F24F35C4F2020543
:103C9000A8425DDC41F25025C4F20205A8426FD073
:103CA00041F2D025C4F2020568E000BF41F24F3571
:103CB000C5F20205A84257DC41F25025C5F20205C3
:103CC000A8425DD041F2D02556E000BF40F2501529
:103CD000C4F20205A84253D040F2D015C4F2020546
:103CE0004CE000BF40F25015C5F20205A84247D093
:103CF00040F2D01540E000BF41F25015C4F2020579
:103D0000A8423DD041F2D015C4F2020536E000BF12
:103D100041F25015C5F20205A84231D041F2D0154A
:103D20002AE000BF40F25035C4F20205A84227D075
:103D300040F2D035C4F2020520E000BF40F2503519
:103D4000C5F20205A8421BD040F2D03514E000BFF6
:103D500041F25035C4F20205A84211D041F2D035EB
:103D6000C4F202050AE000BF41F2D035C5F20205F7
:103D7000A84205D041F25035C5F20205A84212D141
:103D8000D4E909514FF07C76E26A06EB01514FF419
:103D90007C7606EB051501F07C711A4305F47C7501
:103DA000114341EA0503016C01F0802119430164CC
:103DB000A1682279E5681143226BB5F5007F41EADD
:103DC000020323D0B5F5806F40F00E81704521DCF1
:103DD00041F24F01C4F20201884237DC40F24F2128
:103DE000C4F2020188425FDC40F24F11C4F20201CA
:103DF000884200F399805021C4F20201884200F009
:103E0000F180D021C4F20201E6E000BF43F4007368
:103E1000EAE000BF41F24F01C5F2020188422DDC09
:103E200040F24F21C5F2020188424FDC40F24F11AF
:103E3000C5F20201884200F383805021C5F20201DD
:103E4000884200F0CF80D021C4E000BF41F24F2172
:103E5000C4F20201884245DC41F24F11C4F2020172
:103E6000884277DC41F25001C4F20201884200F03E
:103E7000B98041F2D001C4F20201ADE041F24F211C
:103E8000C5F2020188423FDC41F24F11C5F2020146
:103E900088426BDC41F25001C5F20201884200F019
:103EA000A18041F2D00195E040F24F31C4F202010D
:103EB000884265DC40F25021C4F20201884200F0E1
:103EC000918040F2D021C4F2020185E0604563DCBC
:103ED00040F25021C5F20201884200F0838040F296
:103EE000D02177E041F24F31C4F2020188425DDC1B
:103EF00041F25021C4F20201884273D041F2D02134
:103F0000C4F2020168E000BF41F24F31C5F2020184
:103F1000884257DC41F25021C5F20201884261D04B
:103F200041F2D02156E000BF40F25011C4F202012C
:103F3000884257D040F2D011C4F202014CE000BFD9
:103F400040F25011C5F2020188424BD040F2D0112C
:103F500040E000BF41F25011C4F20201884241D05A
:103F600041F2D011C4F2020136E000BF41F250111B
:103F7000C5F20201884235D041F2D0112AE000BFDB
:103F800040F25031C4F2020188422BD040F2D031CD
:103F9000C4F2020120E000BF40F25031C5F202013C
:103FA00088421FD040F2D03114E000BF41F25031BE
:103FB000C4F20201884215D041F2D031C4F20201AC
:103FC0000AE000BF41F2D031C5F20201884209D0B7
:103FD00041F25031C5F20201884208BF43F48063C8
:103FE00002E000BF43F48063626B416C42F2001652
:103FF000C3F6C04613433140194341640021604574
:10400000816411DC41F24F31C4F2020188421BDCB1
:1040100040F25031C4F2020188422DD040F2D0313A
:10402000C4F2020126E000BF41F24F31C5F20201A5
:10403000884215DC40F25031C5F2020188421BD0A3
:1040400040F2D03114E000BF41F25031C4F202011D
:10405000884211D041F2D031C4F202010AE000BF1F
:1040600041F2D031C5F20201884205D041F250310F
:10407000C5F20201884202D100214165816500211B
:10408000C167226501220020A16584F8542070BD1B
:1040900010B520B1D0F850C0BCF1000F02D0012003
:1040A00010BD00BF90F84CC0BCF1010F04BF02204E
:1040B00010BD4FF0010C80F84CC090F854C0BCF11A
:1040C000010F39D14FF0020C80F854C04FF0000CB2
:1040D000C0F858C0D0F800C0D0F864E0DCF8484020
:1040E000BEF1000FC3EA0403CCF848304FF4FE439E
:1040F000CCF80C30CCF84C10CCF85020DCF8141074
:1041000041F4BA41CCF8141005D0DCF8141041F495
:104110000071CCF81410006F28B1DCF8140040F4E2
:104120000050CCF81400DCF8140040F00100CCF88A
:104130001400002010BD00BF40218165002180F8DF
:104140004C10012010BD0000B0B5044600F0F0FF97
:10415000054640F21800C2F200000078611C18BF4A
:10416000044400BF00F0E4FF401BA042FAD3B0BDFE
:1041700010B590F85C30013B012B69D8006801F064
:104180000703D0F858E01EF0010C00D11BBB11F062
:10419000380F02D01EF002041DD011F4E07F02D0CF
:1041A0001EF0040417D011F4F05F02D01EF00804D2
:1041B00011D011F4604F02D01EF010040BD011F496
:1041C000403F02D01EF0200405D011F47C0F06D031
:1041D0001EF0400403D1C46D44F00104C465002BFB
:1041E00018BFBCF1000F3BD111F0380F18BF1EF003
:1041F000020335D111F4E07F18BF1EF004032FD164
:1042000011F4F05F18BF1EF0080329D111F4604FBC
:1042100018BF1EF0100323D111F4403F18BF1EF049
:1042200020031DD111F47C0F18BF1EF0400317D1DD
:104230000B061BD4CB0504D5D0F8E0301A43C0F8E8
:10424000E02000F15402002013681943116010BDF2
:1042500000F160020120022113681943116010BDB2
:10426000C36D43F00203C3650B06E3D5D0F8DC3021
:104270001343C0F8DC30CB05E3D5DDE7F0B590F8AB
:104280005C30022B12D10668D6F8C4309B0213D4DE
:10429000D6F8C4300D69C3F3014CD1E901438CB1A8
:1042A0000C682B43234343F0804E0FE0016E41F036
:1042B000080101660120F0BD016E41F40071016644
:1042C0000120F0BD0C682B4343EA844ED1E9074539
:1042D000D1E9053744EA0564CD683C432343446D86
:1042E0000CEBCC0743EA054504EBC70344F837E081
:1042F0005D60CF687FB145F23C150833033200247E
:10430000C0F60205171957F8037C1F51CF68043413
:10431000EF5DBC42F6D3012101FA0CF1C6F8CC10D6
:1043200081650020F0BD000080B590F85C20013A66
:10433000012A13D80A68BAB101F1040ED1E9043197
:104340009EE80450406C43EA4E7E41EA8C7100EBDB
:10435000C20340F832E00020596080BD016E41F098
:1043600002010166012080BDD1E901CED1E903231C
:104370004969D20642EA8E72006C42EA0342114356
:1043800040F82C10002080BD844690F85C00012885
:1043900012D19200DCF800C042EA011100985CF8EA
:1043A000802F41EA430122F03F02084340EA020124
:1043B0000020CCF8001070475CF8600F40F004015A
:1043C0000120CCF80010704790F85C30013B012BC5
:1043D0000AD80068012A826D0CBF22EA010111434C
:1043E00081650020704700BF016E41F00201016647
:1043F00001207047002804BF0120704710B5044613
:1044000090F85C00022829D12068816941F00101FF
:1044100081618169C90710D10C2100BF8269D2076F
:1044200001BF82695FEAC27282695FEAC27204D127
:10443000043937D08269D207F0D0816921F01001A8
:104440008161816909071BD4816941F002018161A1
:104450000021A165012184F85C1004E02068216E30
:1044600041F008012166C16D21F00301C1652046BC
:1044700000F062FB0020206684F85C0010BD00BFE5
:104480000C2100BF8269120741BF82695FEA027294
:1044900082695FEA0272D7D5043903D082691207B4
:1044A000F0D4D1E7216E41F001012166032184F8A7
:1044B0005C10D8E780B590F85C20013A012A6FD8EB
:1044C00000680B06426D22EA0102426544BF0022E9
:1044D000C0F8DC20C90544BF0021C0F8E010426DDF
:1044E000D0F858E002F007031EF0010C00D13BBBEE
:1044F00012F0380F02D01EF0020121D012F4E07F3A
:1045000002D01EF004011BD012F4F05F02D01EF0A6
:10451000080115D012F4604F02D01EF010010FD028
:1045200012F4403F02D01EF0200109D012F47C0F9B
:1045300002D01EF0400103D0C16D21F00101C16520
:10454000002B18BFBCF1000F30D112F0380F18BF8C
:104550001EF002012AD112F4E07F18BF1EF0040100
:1045600024D112F4F05F18BF1EF008011ED112F41E
:10457000604F18BF1EF0100118D112F4403F18BF51
:104580001EF0200112D112F47C0F18BF1EF0400162
:104590000CD1C16D21F00201C165002080BD00BFBA
:1045A000016E41F002010166012080BD002080BD46
:1045B0007047000070470000F0B50068406C00F0E4
:1045C0000702C0F38014C0F3022300F0180CC0F3FC
:1045D000401EC0F3003781E80C5001F11002C0F317
:1045E000C015C0F3C026F0C2C0F34032C0F3803320
:1045F000C0F306470020C1E908238F62F0BD000028
:104600002DE9F04390F85C70022F1BD1D0F800C068
:1046100040291FD1DCF890703F0700F09D80DCF846
:104620009070FF0146BFDCF88070C7F34027002779
:10463000DCF89060C6F3012606EB070C00F1480792
:104640001DE000BF016E41F0080101660120BDE8D8
:10465000F08300BFDCF898703F077DD0DCF89870DD
:10466000FF0146BFDCF88070C7F300270027DCF8A5
:104670009860C6F3012606EB070C00F14C073F6873
:104680000CEBCC0657F8365007EBC60E15F08045FC
:10469000556057F8365025F0604408BFC5F38A448A
:1046A000146057F8365005F00055956057F83640BD
:1046B00004F000441461BEF80440D461BEF8064022
:1046C00014F00F04D460DEF8044004F48014546144
:1046D000DEF8044004F4001494619EF8074004F0EE
:1046E0007F041462DEF804404FEAD474546228D088
:1046F00045F23C180024C0F6020800BF0EEB040689
:10470000377A651C1F55D76818F80770BD4218D254
:10471000757A1F197D70D56818F80590A51C4D4550
:104720000FD2B57ABD70D56818F80590E51C4D45D7
:1047300007D2F57A0434FD70D56818F80550AC42FC
:10474000DCD3006840290CBFC0F894C0C0F89CC0FE
:104750000020BDE8F08300BF016E41F48071016666
:104760000120BDE8F08300000068D0F8C40000F02C
:1047700007007047704700002DE9F04F85B00446F0
:104780000068016D426D056DD0F85490D0F850A0CE
:10479000D0F85480036D01EA020B0493436D039338
:1047A000036D0293436D0193436D076D1F407B06BC
:1047B0005CD405EA0906F8050BF4E05561D408EA73
:1047C0000A0806F007062DB120682946056520462F
:1047D00000F026FB08F038052EB12068314606654A
:1047E000204600F08BFA2DB1206829460565204649
:1047F00000F0A4FAB80557D438065ED4B80469D4DA
:104800003804DDE9011000EA010506D520684FF4FF
:1048100000410165204600F0FBFADDE90310084085
:10482000790405F4602107D522684FF480431365AD
:10483000226E42F08002226600F4710521B12068E8
:1048400001652046FFF7B6FE25B120680565206E9C
:1048500028432066206E002804BF05B0BDE8F08F15
:10486000204605B0BDE8F04FFFF7A2BE402101652C
:104870002046FFF77FFF05EA0906F8050BF4E0552F
:104880009DD52068D0F8D810D0F8E02011404FF422
:1048900080720265204600F0BFFA08EA0A08002D7F
:1048A00006F0070690D195E720684FF40071016586
:1048B000204600F0B7FA3806A0D52068D0F8D4100A
:1048C000D0F8DC20114080220265204600F0A6FAD4
:1048D000B80495D520684FF400510165204600F0DA
:1048E00099FA3804DDE9011000EA01058ED494E755
:1048F00070B5002804BF012070BD044690F85C002C
:1049000028B9002084F85D00204600F065F9206891
:10491000816921F01001816100F00AFC054600BFA9
:1049200020688169090705D500F002FC401B0B28AF
:10493000F6D310E0816941F00101816100F0F8FBDC
:10494000054600BF20688169C9070DD100F0F0FB62
:10495000401B0B28F6D3206E032140F00100206697
:10496000012084F85C1070BD82694AF2004CC4F2E8
:10497000000C42F002026045826102D16268CCF80C
:104980000021227C8369012A23F0400318BF4033B1
:104990008361627C8369012A23F4804308BF03F5A5
:1049A00080438361A27C8369012A23F4805318BF6A
:1049B00003F580538361826922F44075D4E90223B0
:1049C00015438561856925F0A4058561056925F094
:1049D00010050561B3B1022B10D0012B04D18369FE
:1049E00043F004030DE000BF8569032B45F080050B
:1049F0008561056945F01005056103D1836943F0C0
:104A000020038361D4E90515D4E907366FF0FF0E62
:104A10000EEB0323013D43EA45630025CFF6FF7506
:104A2000013E05EB014133431943B2F5407FC161BB
:104A30000FD104F124064ECE0EEB0323013A1A43A4
:104A40006FF00F0303EB061305EB01411A4311430B
:104A5000C160D4E90D13E26BD0F8C0603243C0F8F6
:104A6000C0200CF580660CF50062B04208BF0CF562
:104A700035622264D0F8806026F4F81646EA0141D7
:104A8000C0F8801002F170016164D0F8801021F04C
:104A9000706141EA0361C0F8801002F1B000A064C7
:104AA00002F5C470E06402F51870206502F51E700E
:104AB000606502F554700021C2E90011C2E90211DB
:104AC000C2E90411C2E90611C2E90811C2E90A11DA
:104AD000C2E90C11C2E90E11C2E91011C2E91211AA
:104AE000C2E91411C2E91611C2E91811C2E91A117A
:104AF000C2E91C11C2E91E11C2E92011C2E922114A
:104B0000C2E92411C2E92611C2E92811C2E92A1119
:104B1000C2E92C11C2E92E11C2E93011C2E93211E9
:104B2000C2F8D010D4328242C6D300200121A06541
:104B3000206684F85C1070BD10B500684AF600016C
:104B4000C4F20001884223D04AF20041C4F20001BD
:104B5000884218BF10BD40F6C820C2F200000168AC
:104B60000139016007D140F6A040C4F2024001685B
:104B700021F4007101600020C4F202204FF4C05102
:104B800000F052F92720BDE8104000F063BF00BFDD
:104B900040F6C820C2F2000001680139016007D167
:104BA00040F6A040C4F20240016821F400710160A7
:104BB0000024C4F2022404F540604FF4007100F0B8
:104BC00033F904F58060402100F02EF96D20BDE836
:104BD000104000F03FBF000070B586B000684AF694
:104BE0000001C4F2000188424FF000010591CDE9B7
:104BF0000311CDE9011131D04AF20041C4F20001A4
:104C0000884279D140F6C821C2F200010868421CEE
:104C1000002840F68C40C4F202400A6008D1416985
:104C200041F400714161416901F400710091009902
:104C30000168272441F001010160006800F00100D3
:104C4000009000984FF4C050019002200290002084
:104C5000CDE903000020C4F2022040E040F6C82164
:104C6000C2F200010868421C002840F68C40C4F2E1
:104C700002400A6008D1416941F400714161416913
:104C800001F40071009100990168002641F00801CB
:104C900001600168C4F2022601F008010091009948
:104CA0000168022441F0020101600068002500F063
:104CB0000200009000984FF40070019009200590C8
:104CC00006F5406001A90294CDE9035500F05CF9B6
:104CD000402001A931C106F580606D2404950921A9
:104CE000059101A900F050F920460521002200F0AD
:104CF000D5FE204600F0C2FE06B070BD43F2C052A1
:104D0000C2F200025368834203D0D2F8C425824223
:104D100012D1C80708BF704740F25030C2F20000FD
:104D2000006848B142F28022C2F2030211684B1CB3
:104D3000012113601BF0E2BF7047000070470000C4
:104D400090F85C1001290BD1022180F85C100168F9
:104D50008A6922F001028A610021016608467047D3
:104D6000016E41F0040101660120704790F85C106B
:104D700002292BD101688A6942F001028A618A699D
:104D8000D20710D10C2200BF8B69DB0701BF8B69F2
:104D90005FEAC3738B695FEAC37304D1043A2DD011
:104DA0008B69DB07F0D08A6922F010028A618A6978
:104DB000120711D48A6942F002028A61002101229D
:104DC000816580F85C200846704700BF016E41F0A5
:104DD00008010166012070470C2200BF8B691B0788
:104DE00041BF8B695FEA03738B695FEA0373E1D5A7
:104DF000043A03D08B691B07F0D4DBE7016E41F066
:104E000001010166032180F85C1001207047000059
:104E100070470000704700007047000070470000B6
:104E200070470000704700002DE9F04F82B0002964
:104E300074D047F67F72C0F22F0202EA902200235C
:104E40000026002701250092019129E00168032234
:104E5000B240114301606FF0030101EA540103F015
:104E60001C0C0144D1F820800F2404FA0CF428EA29
:104E700004040C62816891438160416821EA0E015B
:104E80004160C1689143C160019931FA05F205F1B1
:104E9000010507F1080706F1020603F104033DD0FE
:104EA0006C1E012202FA04FE1EEA0109EDD042F254
:104EB0000001C4F202414FEA940801F1600C0F2294
:104EC0005CF828A007F0180B02FA0BF10AEA0102BD
:104ED0008A46009901FA0BF18A42B7D142F20002E8
:104EE000C4F20242D2F8801021EA0901C2F880100F
:104EF000D2F8841021EA0901C2F88410116821EA6D
:104F000009011160516821EA090151605CF828101B
:104F100021EA0A014CF8281098E700BF02B0BDE86A
:104F2000F08F0000082808BF12F0FABD042818BF4F
:104F3000704712F007BE0000B0B542F20C05C4F293
:104F4000024529680446014203D020462C6000F047
:104F50000BF86868204208BFB0BD20466C60BDE811
:104F6000B040FFF7DFBF0000012808BF12F0E2BD2C
:104F7000B0F5004F04D0042818BF704712F0E2BD0E
:104F80004FF400400BF0A6BD2DE9F04F81B00B6847
:104F9000002B00F0BD8047F67F72C0F22F0202EABC
:104FA00090224FF0000B00260027012400920BE016
:104FB0000B68083733FA04F504F1010406F1020620
:104FC0000BF1040B00F0A480A4F10108012202FA05
:104FD00008FC13EA0C02EBD0D1F804E04EF0100309
:104FE000122B18D16FF0030303EA58030BF01C05D2
:104FF00000EB030ADAF820E00F23D1F81090AB4061
:105000002EEA030E09F00F03AB4043EA0E03CAF881
:105010002030D1F804E003680325B5400EF0030901
:105020006FEA050AAB4309FA06F52B43BEF1120FEE
:10503000036065D8012303FA0EF313F0061F5FD057
:105040008368CD6803EA0A03B5402B438360436855
:105050004FEA1E1523EA0C0305FA08F52B434360BB
:10506000C3688D6803EA0A03B5402B43C3605FEA57
:10507000CE039DD528F0030342F20008C4F2024893
:1050800008EB030EDEF860C007F018050F23AB40F5
:105090002CEA030C009B03FA05F54CEA0503CEF855
:1050A0006030D8F800C0D1F804E04CEA02055FEAAD
:1050B000CE2358BF2CEA0205C8F80050D8F804C027
:1050C0005FEA8E234CEA020558BF2CEA0205C8F8B5
:1050D0000450D8F884C05FEA8E334CEA020558BF0A
:1050E0002CEA0205C8F88450D8F880C05FEACE33B5
:1050F0004CEA020558BF2CEA0205C8F8805057E771
:10510000B9F1030FACD18B68012BA9D1AFE700BF78
:1051100001B0BDE8F08F00000069084018BF012011
:10512000704700001823002A08BF2823C150704789
:1051300047F64840C2F204000068704790F84120EA
:10514000202A03D190F84020012A01D10220704783
:10515000242280F841200268136823F001031360C1
:10516000136823F4805313601368194311601168A6
:1051700041F001011160202180F84110002180F8E8
:10518000401008467047000090F84120202A03D1C3
:1051900090F84020012A01D102207047242280F893
:1051A00041200268136823F001031360136823F49D
:1051B000706343EA01211160116841F0010111603F
:1051C000202180F84110002180F8401008467047E7
:1051D000002804BF0120704710B5044690F8410034
:1051E00028B9002084F84000204600F085FA2420E9
:1051F00084F8410094E80910E2680168012A21F06E
:105200000101016023F070610161816821F40041B6
:10521000816003D14CF40041816009E04CF4044109
:10522000022A816004D1416841F4006103E000BFBB
:10523000416821F400614160416804F1100341F0CC
:10524000007141F400414160C16821F40041C16036
:105250000ECB114341EA0321E269C160216A114387
:105260000160016841F001010160002020216064BB
:1052700084F84110206384F8420010BD2DE9F04FFE
:1052800081B0044690F8410020280DD1DDF828A017
:10529000BAF1000F0CD0DDF82CB0BBF1000F07D035
:1052A00094F8400001280BD1022001B0BDE8F08F36
:1052B0004FF400706064012001B0BDE8F08F00BFC2
:1052C00001201D461746894684F84000FFF730FF4D
:1052D000216806468A69120447D422200C9A84F871
:1052E000410040204FF0000884F84200C4F8448098
:1052F000C4F824A0A4F82AB0C4F8348093466FF30D
:105300009F29E8B24A6849F6000ACFF6004A49EAFE
:10531000004002EA0A02104400F5005048602046AE
:105320005946324609F03AF8A8B9012D08D020684C
:10533000390A816220465946324609F02FF850B9A1
:105340002068F9B281622046402100225B46009627
:1053500008F062FF50B384F84080012001B0BDE83E
:10536000F08F00BF88690004B7D520461921324666
:1053700008F09EFE00289ED1FFF7DAFE801B216810
:105380001A28EFD388690004ECD5606C40F0200047
:105390006064202084F84100002084F8420084F8F2
:1053A0004000012001B0BDE8F08F00BF608D5F4676
:1053B00040F2000BB0F5807FC0F2FF1B0AD32068DB
:1053C0000BF5105350F8041F01EA0A0141EA0902E3
:1053D000FF210BE0618D2068CAB250F8043F49EA12
:1053E000024203EA0A031A430BF592331A434FF0C1
:1053F000FF080AF58065026021850FE0618D206855
:105400002185C9B250F8042F49EA01412A401143CD
:105410004FF0007211430160608DA8B32046042153
:1054200000223B46009608F0F7FE00287FF443AFC9
:105430002068616A406A0870606A218D0130013914
:1054400060622185608D0904A0F101006085608D96
:10545000E2D10028E0D02046802100223B46009681
:1054600008F0DAFE00287FF426AF608DB0F5807F6B
:10547000C4D32068A4F8288050F8041F5A46294055
:1054800041EA0901C6E700BF20463946324608F026
:1054900045FF00287FF40FAF20682021C1614268DA
:1054A0004EF60003CFF600631A404260002084F8F5
:1054B000411084F8420084F8400001B0BDE8F08F4C
:1054C0002DE9F04F81B0044690F8410020280DD11D
:1054D000DDF828A0BAF1000F0CD0DDF82CB0BBF13C
:1054E000000F07D094F8400001280BD1022001B032
:1054F000BDE8F08F4FF400706064012001B0BDE89A
:10550000F08F00BF01201D461746894684F84000F1
:10551000FFF70EFE216806468A69120449D421204D
:105520000C9A84F8410040204FF0000884F84200B3
:10553000C4F84480C4F824A0A4F82AB0C4F8348085
:1055400049F6004A93466FF39F29E8B2CFF6004A26
:105550004A68AAF5806349EA00401A40104440F0C6
:10556000807040F40050486020465946324608F0AA
:1055700015FFA8B9012D08D02068390A816220469C
:105580005946324608F00AFF50B92068F9B28162E4
:105590002046802100225B46009608F03DFE48B37D
:1055A00084F84080012001B0BDE8F08F88690004D4
:1055B000B5D520461921324608F07AFD00289CD145
:1055C000FFF7B6FD801B21681A28EFD38869000415
:1055D000ECD5606C40F020006064202084F841002D
:1055E000002084F8420084F84000012001B0BDE8AA
:1055F000F08F00BF608D0025B0F5807FC0F2FF15F1
:105600000AD320682B4650F8041F01EA0A0141EA38
:105610000902FF210CE000BF618D2068CAB250F87A
:10562000043F49EA024203EA0A031A434FF00073B7
:105630001A43FF270260218511E000BF618D2068B9
:105640002185C9B250F8042F49EA014102EA0A0251
:1056500011434FF0007211430160608D80B320460A
:105660005946324608F09AFE00287FF446AF606A39
:10567000226810F8011B91626062608D01386085BC
:10568000208D411E2185608D0904E6D10028E4D0DB
:105690002046802100225B46009608F0BDFD0028D0
:1056A0007FF42BAF608DB0F5807FC7D3206827854E
:1056B00050F8041F2A4601EA0A0141EA0901CAE733
:1056C00020465946324608F029FE00287FF415AFDF
:1056D00020682021C16142684EF60003CFF60063C6
:1056E0001A404260002084F8411084F8420084F897
:1056F000400001B0BDE8F08FB0B5CAB00446002547
:1057000002A84FF484714995CDE94755CDE9455537
:10571000FAF739FE206845F60001C4F2000188421C
:105720003AD045F20041C4F20001884267D14FF4FB
:1057300000500024029002A80394269401F094FCE7
:10574000002818BFFDF742F840F68C45C4F2024528
:10575000286845A940F002002860286800F002008F
:10576000019001984FF4C07045901220CDE9460495
:105770000420499040F20040C4F202204894FFF710
:1057800003FC286940F400102861286900F4001027
:10579000019001984AB0B0BD4FF48040029002A839
:1057A0000395279501F060FC002818BFFDF70EF85F
:1057B00040F68C44C4F20244206845A940F002003F
:1057C0002060206800F00200019001984FF4A05082
:1057D0004590122046900020CDE9470004204990D2
:1057E00040F20040C4F20220FFF7CEFB206940F4F3
:1057F00080002061206900F48000019001984AB087
:10580000B0BD000040F20041C4F203010A68D207B3
:105810001CBF012070470A6822F004021043086090
:105820000020704740F20041C4F20301086840F0D4
:10583000010200200A60704740F2180047F6484114
:10584000C2F20000C2F2040100780A681044086045
:105850007047000080B5032000F04CF902F054FEC0
:1058600040F62041C4F20241096845F27C0201F091
:105870000F01C0F60202515CC84040F22001C2F2A2
:1058800000010860042004F019FB0F2000F008F864
:1058900000281CBF012080BD00F0C6F8002080BD9C
:1058A000B0B588B040F69C41C4F202410A68044693
:1058B00042F020020A60096802A801F0200102916A
:1058C000029901A902F07AFD059D002D18BF01255E
:1058D00002F0AEFDA84045F6C5214009C0F67C2186
:1058E000A0FB01014FF0FF3000EBD11141F2241079
:1058F00041F20043C2F200006322C4F2000300251B
:10590000C0E90031C0E90252056104F0F5FB05462B
:10591000B8B941F22410C2F2000004F05DFC054663
:1059200078B90F2C0CD8322021460022002500F037
:10593000B5F840F21C00C2F20000046001E000BFB4
:105940000125322000F09AF8284608B0B0BD0000CA
:10595000BFF35F8F4EF6C0510278CEF200016FF0B8
:105960001F03043103EBC20390F801C0042A3CBFBB
:105970004EF6C051CEF20001086838BFD300FF22B6
:105980009A4090430CFA03F21043086070470000FD
:10599000BFF35F8F41784EF6A053CEF2000390F82C
:1059A00000C043F8081C196821F001011960416822
:1059B000C27B21F01F0141EAC201427B41EA420160
:1059C000827B114343F8041C8168007B21F01F0196
:1059D00041EA400040EA0C00186070474EF624503F
:1059E000BFF35F8FCEF20000016821F480310160C7
:1059F000016F21F001010167BFF34F8FBFF36F8F7C
:105A0000704700004EF6245140F00100CEF2000134
:105A1000BFF35F8F0867086840F480300860BFF309
:105A20004F8FBFF36F8F70476FF001000F2100227F
:105A300000F034B8002848BF704700F01F01012271
:105A400002FA01F14EF280224009CEF2000242F841
:105A500020107047002848BF704700F01F01012246
:105A600002FA01F14EF280124009CEF2000242F831
:105A70002010BFF34F8FBFF36F8F7047002848BFD0
:105A8000704700F01F01012202FA01F14EF20012EC
:105A90004009CEF2000242F82010704710B54EF6D1
:105AA0000C5CCEF2000CDCF80030C3F3022E8EF05A
:105AB0000704042C28BF0424BEF103034FF0FF3E6B
:105AC00038BF00230EFA04F4A14399400EFA03F301
:105AD0009A4300F00F03043B1143634409010C3364
